:020000040800F2
:1000000058070020890100089101000893010008A9
:100010009501000897010008990100080000000000
:100020000000000000000000000000009B0100082C
:100030009D010008000000009F010008A1010008C8
:10004000A3010008A3010008A3010008A301000800
:10005000A3010008A3010008A3010008A3010008F0
:10006000A3010008A3010008A3010008A3010008E0
:10007000A3010008A3010008A3010008A3010008D0
:10008000A3010008A3010008A3010008A3010008C0
:10009000A3010008A3010008A3010008A3010008B0
:1000A000A3010008A3010008A3010008A3010008A0
:1000B000A3010008A3010008A3010008A301000890
:1000C000A3010008A3010008A3010008A301000880
:1000D000A3010008A3010008A3010008A301000870
:1000E000A3010008A3010008A301000800F002F822
:1000F00000F03AF80AA090E8000C82448344AAF188
:100100000107DA4501D100F02FF8AFF2090EBAE885
:100110000F0013F0010F18BFFB1A43F0010318473B
:100120005809000078090000103A24BF78C878C147
:10013000FAD8520724BF30C830C144BF04680C60ED
:10014000704700000023002400250026103A28BF35
:1001500078C1FBD8520728BF30C148BF0B60704739
:100160001FB51FBD10B510BD00F031F81146FFF7E7
:10017000F7FF00F09FFB00F04FF803B4FFF7F2FF2A
:1001800003BC00F057F800000948804709480047C1
:10019000FEE7FEE7FEE7FEE7FEE7FEE7FEE7FEE737
:1001A000FEE7FEE704480549054A064B7047000094
:1001B0007D060008ED0000085801002058070020C7
:1001C0005803002058030020704770477047754659
:1001D00000F02CF8AE4605006946534620F00700B3
:1001E000854618B020B5FFF7DDFFBDE820404FF091
:1001F00000064FF000074FF000084FF0000BAC4630
:10020000ACE8C009ACE8C009ACE8C009ACE8C0097A
:1002100021F007018D46704710B50446AFF300800A
:100220002046BDE81040FFF7A8BF00000048704717
:100230005000002001491820ABBEFEE72600020056
:100240007047000080B584B00390ADF80A100192A9
:10025000ADF80230039800F0FDFA0198BDF80210E5
:1002600000F098FA002004B080BD000081B00020AA
:100270000090FFE700984F280CDCFFE7009A40F25F
:10028000B101C2F2000100208854FFE7009801305C
:100290000090EFE740F20111C2F200010020087067
:1002A00001B0704781B00090FFE700980078D0B1AE
:1002B000FFE740F20110C2F2000000784F2811DC85
:1002C000FFE70098411C0091007840F20113C2F250
:1002D00000031A78511C197040F2B101C2F20001FA
:1002E0008854FFE7E1E701B07047000081B08DF866
:1002F00003009DF8031040F20000C2F2000050F825
:10030000210001B07047000041F21801C4F202015F
:10031000086840F00800086040F60041C4F201019E
:10032000086800200860086843F23332C8F6830288
:100330001043086040F60441C4F20101086820F04F
:100340000F000860086840F00800086040F60C41A3
:10035000C4F20101086840F4F070086070470000C2
:1003600080B5012000F010F840F20311C2F2000144
:1003700000220A7040F20210C2F2000002700078FF
:10038000097800F0F3F880BD80B582B08DF80700E1
:100390009DF8070000090021009100F0BBF80099CA
:1003A0009DF8070000F00F0000F0B4F89DF807007A
:1003B000012805D0FFE79DF80700022805D1FFE7D7
:1003C0004FF4FA6000F066FAFFE702B080BD00006B
:1003D00080B582B08DF807009DF807000009012163
:1003E000009100F097F800999DF8070000F00F00C9
:1003F00000F090F802B080BD80B582B041F21801E3
:10040000C4F20201086840F00400086040F60001F0
:10041000C4F20101086800F07F400860086841F2FA
:100420001112C0F211021043086044F6206000F07F
:1004300031FA032000900021019100F06BF841F2A5
:10044000883000F027FA0098019900F063F8C8207E
:1004500000F020FA0098019900F05CF80199022060
:1004600000F058F82820FFF78FFF0C20FFF78CFFD3
:100470000620FFF789FF0120FFF786FF02B080BD4D
:1004800080B582B00190FFE70198007850B3FFE794
:1004900040F20210C2F200000078142814DBFFE7DB
:1004A00040F20210C2F200000021017040F203117C
:1004B000C2F200010A78013202F003020A700078E9
:1004C000097800F053F8FFE70198411C019100788A
:1004D000FFF77EFF40F20211C2F2000108780130FE
:1004E0000870D1E702B080BD80B582B040F610013F
:1004F000C4F20101019102200860052000F0CAF950
:1005000001994FF400300860282000F0C3F902B0D0
:1005100080BD000080B582B08DF807008DF8061010
:100520009DF8060038B1FFE740F61001C4F2010162
:100530000120086007E040F61001C4F201014FF409
:1005400080300860FFE740F60C01C4F20101086842
:1005500020F03C009DF8072002F00F0240EA8200E4
:100560000860FFF7C1FF02B080BD000080B582B017
:100570008DF807008DF806109DF8060000F00300C6
:1005800040F20311C2F2000108709DF807004CF61A
:10059000CD42CCF6CC42A0FB0232120902EB820221
:1005A000A0EB820240F20210C2F20000027000785A
:1005B0000A7840F63221C0F60001895C084440F018
:1005C0008000C0B2FFF7E0FE02B080BD82B0002024
:1005D0008DF80600FFE79DF80600042844DCFFE7DD
:1005E00040F60C41C4F20101086840F01F009DF87C
:1005F000063001229A409043086040F60840C4F259
:1006000001000068C0F34310ADF80400BDF8040019
:100610000F2822D0FFE700208DF80300FFE79DF8A8
:100620000300032818DCFFE7BDF804009DF8031061
:10063000C840C00748B9FFE79DF806109DF80300C1
:1006400000EB81008DF8070012E0FFE79DF8030042
:1006500001308DF80300E2E7FFE7FFE79DF80600B1
:1006600001308DF80600B6E7FF208DF80700FFE7A0
:100670009DF8070002B070477047000080B541F256
:100680000002C4F20202106840F00100106041F262
:100690000401C4F2020108680023CFF6FF031840EA
:1006A000086010684FF6FF73CFF6F66318401060CD
:1006B000106820F480201060086820F4FE000860B4
:1006C00041F20801C4F202014FF41F000860FFF775
:1006D000D3FF4EF60851CEF200014FF000600860E3
:1006E00080BD000081B044F60000C4F20000008824
:1006F0008006002804D4FFE700208DF8030003E003
:1007000001208DF80300FFE79DF8030001B070475A
:1007100041F21801C4F20201086840F009000860C3
:1007200041F21C01C4F20201086840F48020086014
:1007300040F60441C4F2010108680B2262F30B2069
:1007400008600868042262F30F30086044F608016C
:10075000C4F2000140F24130088044F60C01C4F2BA
:100760000001088842F20C02104308807047000024
:10077000FFE744F60000C4F200000088800600286D
:1007800001D4FFE7F5E744F60400C4F20000008856
:10079000C0B2704780B582B00190ADF80210002061
:1007A0008DF80100FFE7FFF7E3FF8DF800009DF8EB
:1007B00000000D2816D0FFE79DF800000A2811D090
:1007C000FFE79DF8000001994A1C01920870BDF8EE
:1007D00002000138ADF8020080B2002801DCFFE71A
:1007E00010E0FFE79DF800000A2806D1FFE79DF81A
:1007F00001000D2801D1FFE704E09DF800008DF80D
:100800000100D0E7FFE7BDF80200411EADF802107D
:1008100030B1FFE70199481C019000200870F2E711
:1008200002B080BD81B08DF80300FFE744F6000000
:10083000C4F2000000880006002801D4FFE7F5E7B5
:100840009DF8030044F60401C4F20001088001B0E1
:100850007047000080B582B00190019800F008F860
:1008600040F63620C0F6000000F002F802B080BD6D
:1008700080B582B00190FFE70198007838B1FFE7BA
:100880000198411C01910078FFF7CCFFF4E702B01A
:1008900080BD000082B00190019840000090FFE709
:1008A0000098411E009110B1FFE700BFF8E702B0C9
:1008B0007047000080B586B000200590FFF79CFDD2
:1008C000FFF722FDFFF724FF40F66020C0F600008E
:1008D000FFF7D6FD40F64720C0F600000490FFE782
:1008E000FFF774FE8DF80F009DF80F00FF2800F051
:1008F0008580FFE7FFE79DF80F000290FFF766FE97
:1009000001460298884201D1FFE7F4E79DF80F0005
:10091000014601910F2804D0FFE70198132805D064
:1009200048E0FFF71DFDFFF7A1FC62E040F2011077
:10093000C2F20000007801283BDBFFE740F2B00183
:10094000C2F2000102200870FFF70AFD40F2011018
:10095000C2F20000017840F2B100C2F2000040F2A1
:100960000412C2F200025023FFF76CFC8DF80E0057
:10097000FFF77CFC9DF80E0068B1FFE740F2B00184
:10098000C2F200010520087040F66E20C0F600009B
:10099000FFF776FD0CE040F2B001C2F20001042046
:1009A000087040F20410C2F20000FFF769FDFFE793
:1009B000FFE71EE040F2B000C2F20000007801281C
:1009C0000BD0FFE7FFF7CCFCFFF750FC40F2B00183
:1009D000C2F2000101200870FFE79DF80F00FFF749
:1009E00085FC04900498FFF74BFD0498FFF75AFC30
:1009F000FFE741F28830FFF74DFFFFE7FFF772FE98
:100A0000B0B1FFE740F2B001C2F200010620087069
:100A100040F20410C2F2000000905021FFF7BAFE2D
:100A2000FFF79EFCFFF722FC0098FFF729FDFFE788
:100A300056E7004014540D0A00280029002A002B14
:100A4000002D002E002F0030300031003200330026
:100A50003400350036003700380039003D004300CF
:100A600043414C43554C41544F52203A4400455267
:100A7000524F52006C6E0000980A000800000020DF
:100A80005000000028010008E80A0008500000207B
:100A900008070000440100084A0A00084C0A000840
:100AA0004E0A00083F0A0008500A0008520A0008CF
:100AB000540A0008410A0008560A0008580A0008AB
:100AC0005A0A00083D0A0008430A0008480A0008BC
:100AD000740A00085E0A0008390A00083B0A000888
:080AE000450A00085C0A000849
:040000050800018965
:00000001FF
